{
  "contractName": "AtomicSwap",
  "abi": [
    {
      "constant": true,
      "inputs": [
        {
          "name": "",
          "type": "bytes20"
        }
      ],
      "name": "swaps",
      "outputs": [
        {
          "name": "initTimestamp",
          "type": "uint256"
        },
        {
          "name": "refundTime",
          "type": "uint256"
        },
        {
          "name": "hashedSecret",
          "type": "bytes20"
        },
        {
          "name": "secret",
          "type": "bytes32"
        },
        {
          "name": "initiator",
          "type": "address"
        },
        {
          "name": "participant",
          "type": "address"
        },
        {
          "name": "value",
          "type": "uint256"
        },
        {
          "name": "emptied",
          "type": "bool"
        },
        {
          "name": "state",
          "type": "uint8"
        }
      ],
      "payable": false,
      "stateMutability": "view",
      "type": "function"
    },
    {
      "inputs": [],
      "payable": false,
      "stateMutability": "nonpayable",
      "type": "constructor"
    },
    {
      "anonymous": false,
      "inputs": [
        {
          "indexed": false,
          "name": "_refundTime",
          "type": "uint256"
        }
      ],
      "name": "Refunded",
      "type": "event"
    },
    {
      "anonymous": false,
      "inputs": [
        {
          "indexed": false,
          "name": "_redeemTime",
          "type": "uint256"
        }
      ],
      "name": "Redeemed",
      "type": "event"
    },
    {
      "anonymous": false,
      "inputs": [
        {
          "indexed": false,
          "name": "_initiator",
          "type": "address"
        },
        {
          "indexed": false,
          "name": "_participator",
          "type": "address"
        },
        {
          "indexed": false,
          "name": "_hashedSecret",
          "type": "bytes20"
        },
        {
          "indexed": false,
          "name": "_value",
          "type": "uint256"
        }
      ],
      "name": "Participated",
      "type": "event"
    },
    {
      "anonymous": false,
      "inputs": [
        {
          "indexed": false,
          "name": "_initTimestamp",
          "type": "uint256"
        },
        {
          "indexed": false,
          "name": "_refundTime",
          "type": "uint256"
        },
        {
          "indexed": false,
          "name": "_hashedSecret",
          "type": "bytes20"
        },
        {
          "indexed": false,
          "name": "_participant",
          "type": "address"
        },
        {
          "indexed": false,
          "name": "_initiator",
          "type": "address"
        },
        {
          "indexed": false,
          "name": "_funds",
          "type": "uint256"
        }
      ],
      "name": "Initiated",
      "type": "event"
    },
    {
      "constant": false,
      "inputs": [
        {
          "name": "_refundTime",
          "type": "uint256"
        },
        {
          "name": "_hashedSecret",
          "type": "bytes20"
        },
        {
          "name": "_participant",
          "type": "address"
        }
      ],
      "name": "initiate",
      "outputs": [],
      "payable": true,
      "stateMutability": "payable",
      "type": "function"
    },
    {
      "constant": false,
      "inputs": [
        {
          "name": "_refundTime",
          "type": "uint256"
        },
        {
          "name": "_hashedSecret",
          "type": "bytes20"
        },
        {
          "name": "_initiator",
          "type": "address"
        }
      ],
      "name": "participate",
      "outputs": [],
      "payable": true,
      "stateMutability": "payable",
      "type": "function"
    },
    {
      "constant": false,
      "inputs": [
        {
          "name": "_secret",
          "type": "bytes32"
        },
        {
          "name": "_hashedSecret",
          "type": "bytes20"
        }
      ],
      "name": "redeem",
      "outputs": [],
      "payable": false,
      "stateMutability": "nonpayable",
      "type": "function"
    },
    {
      "constant": false,
      "inputs": [
        {
          "name": "_hashedSecret",
          "type": "bytes20"
        }
      ],
      "name": "refund",
      "outputs": [],
      "payable": false,
      "stateMutability": "nonpayable",
      "type": "function"
    }
  ],
  "bytecode": "0x6060604052341561000f57600080fd5b6112b08061001e6000396000f30060606040526004361061006d576000357c0100000000000000000000000000000000000000000000000000000000900463ffffffff16806327f10ee0146100725780635a8f9b81146100c15780637ec27ba1146100f3578063eb8ae1ed14610132578063f325cc9114610181575b600080fd5b6100bf60048080359060200190919080356bffffffffffffffffffffffff191690602001909190803573ffffffffffffffffffffffffffffffffffffffff1690602001909190505061028f565b005b34156100cc57600080fd5b6100f160048080356bffffffffffffffffffffffff191690602001909190505061060d565b005b34156100fe57600080fd5b6101306004808035600019169060200190919080356bffffffffffffffffffffffff19169060200190919050506109a9565b005b61017f60048080359060200190919080356bffffffffffffffffffffffff191690602001909190803573ffffffffffffffffffffffffffffffffffffffff16906020019091905050610e02565b005b341561018c57600080fd5b6101b160048080356bffffffffffffffffffffffff19169060200190919050506111c3565b604051808a8152602001898152602001886bffffffffffffffffffffffff19166bffffffffffffffffffffffff1916815260200187600019166000191681526020018673ffffffffffffffffffffffffffffffffffffffff1673ffffffffffffffffffffffffffffffffffffffff1681526020018573ffffffffffffffffffffffffffffffffffffffff1673ffffffffffffffffffffffffffffffffffffffff1681526020018481526020018315151515815260200182600281111561027357fe5b60ff168152602001995050505050505050505060405180910390f35b816000600281111561029d57fe5b600080836bffffffffffffffffffffffff19166bffffffffffffffffffffffff1916815260200190815260200160002060070160019054906101000a900460ff1660028111156102e957fe5b1415156102f557600080fd5b83600080856bffffffffffffffffffffffff19166bffffffffffffffffffffffff191681526020019081526020016000206001018190555042600080856bffffffffffffffffffffffff19166bffffffffffffffffffffffff191681526020019081526020016000206000018190555033600080856bffffffffffffffffffffffff19166bffffffffffffffffffffffff1916815260200190815260200160002060050160006101000a81548173ffffffffffffffffffffffffffffffffffffffff021916908373ffffffffffffffffffffffffffffffffffffffff16021790555081600080856bffffffffffffffffffffffff19166bffffffffffffffffffffffff1916815260200190815260200160002060040160006101000a81548173ffffffffffffffffffffffffffffffffffffffff021916908373ffffffffffffffffffffffffffffffffffffffff16021790555034600080856bffffffffffffffffffffffff19166bffffffffffffffffffffffff191681526020019081526020016000206006018190555082600080856bffffffffffffffffffffffff19166bffffffffffffffffffffffff1916815260200190815260200160002060020160006101000a81548173ffffffffffffffffffffffffffffffffffffffff02191690836c01000000000000000000000000900402179055506002600080856bffffffffffffffffffffffff19166bffffffffffffffffffffffff1916815260200190815260200160002060070160016101000a81548160ff0219169083600281111561053d57fe5b02179055507fd2ae53b489af667edae5247fc948af6bab36cb0ec684fb14cc114c95905f4f1982338534604051808573ffffffffffffffffffffffffffffffffffffffff1673ffffffffffffffffffffffffffffffffffffffff1681526020018473ffffffffffffffffffffffffffffffffffffffff1673ffffffffffffffffffffffffffffffffffffffff168152602001836bffffffffffffffffffffffff19166bffffffffffffffffffffffff1916815260200182815260200194505050505060405180910390a150505050565b80600080826bffffffffffffffffffffffff19166bffffffffffffffffffffffff1916815260200190815260200160002060010154600080836bffffffffffffffffffffffff19166bffffffffffffffffffffffff1916815260200190815260200160002060000154014211151561068457600080fd5b60001515600080836bffffffffffffffffffffffff19166bffffffffffffffffffffffff1916815260200190815260200160002060070160009054906101000a900460ff1615151415156106d757600080fd5b6002808111156106e357fe5b600080846bffffffffffffffffffffffff19166bffffffffffffffffffffffff1916815260200190815260200160002060070160019054906101000a900460ff16600281111561072f57fe5b14156107fc57600080836bffffffffffffffffffffffff19166bffffffffffffffffffffffff1916815260200190815260200160002060050160009054906101000a900473ffffffffffffffffffffffffffffffffffffffff1673ffffffffffffffffffffffffffffffffffffffff166108fc600080856bffffffffffffffffffffffff19166bffffffffffffffffffffffff19168152602001908152602001600020600601549081150290604051600060405180830381858888f1935050505015156107fb57600080fd5b5b6001600281111561080957fe5b600080846bffffffffffffffffffffffff19166bffffffffffffffffffffffff1916815260200190815260200160002060070160019054906101000a900460ff16600281111561085557fe5b141561092257600080836bffffffffffffffffffffffff19166bffffffffffffffffffffffff1916815260200190815260200160002060040160009054906101000a900473ffffffffffffffffffffffffffffffffffffffff1673ffffffffffffffffffffffffffffffffffffffff166108fc600080856bffffffffffffffffffffffff19166bffffffffffffffffffffffff19168152602001908152602001600020600601549081150290604051600060405180830381858888f19350505050151561092157600080fd5b5b6001600080846bffffffffffffffffffffffff19166bffffffffffffffffffffffff1916815260200190815260200160002060070160006101000a81548160ff0219169083151502179055507f3d2a04f53164bedf9a8a46353305d6b2d2261410406df3b41f99ce6489dc003c426040518082815260200191505060405180910390a15050565b8082816bffffffffffffffffffffffff191660038260006040516020015260405180826000191660001916815260200191505060206040518083038160008661646e5a03f115156109f957600080fd5b5050604051516c01000000000000000000000000026bffffffffffffffffffffffff1916141515610a2957600080fd5b600080836bffffffffffffffffffffffff19166bffffffffffffffffffffffff1916815260200190815260200160002060010154600080846bffffffffffffffffffffffff19166bffffffffffffffffffffffff19168152602001908152602001600020600001540142101515610a9f57600080fd5b60001515600080846bffffffffffffffffffffffff19166bffffffffffffffffffffffff1916815260200190815260200160002060070160009054906101000a900460ff161515141515610af257600080fd5b600280811115610afe57fe5b600080856bffffffffffffffffffffffff19166bffffffffffffffffffffffff1916815260200190815260200160002060070160019054906101000a900460ff166002811115610b4a57fe5b1415610c1757600080846bffffffffffffffffffffffff19166bffffffffffffffffffffffff1916815260200190815260200160002060040160009054906101000a900473ffffffffffffffffffffffffffffffffffffffff1673ffffffffffffffffffffffffffffffffffffffff166108fc600080866bffffffffffffffffffffffff19166bffffffffffffffffffffffff19168152602001908152602001600020600601549081150290604051600060405180830381858888f193505050501515610c1657600080fd5b5b60016002811115610c2457fe5b600080856bffffffffffffffffffffffff19166bffffffffffffffffffffffff1916815260200190815260200160002060070160019054906101000a900460ff166002811115610c7057fe5b1415610d3d57600080846bffffffffffffffffffffffff19166bffffffffffffffffffffffff1916815260200190815260200160002060050160009054906101000a900473ffffffffffffffffffffffffffffffffffffffff1673ffffffffffffffffffffffffffffffffffffffff166108fc600080866bffffffffffffffffffffffff19166bffffffffffffffffffffffff19168152602001908152602001600020600601549081150290604051600060405180830381858888f193505050501515610d3c57600080fd5b5b6001600080856bffffffffffffffffffffffff19166bffffffffffffffffffffffff1916815260200190815260200160002060070160006101000a81548160ff0219169083151502179055507f82498456531a1065f689ba348ce20bda781238c424cf36748dd40bc282831e03426040518082815260200191505060405180910390a183600080856bffffffffffffffffffffffff19166bffffffffffffffffffffffff19168152602001908152602001600020600301816000191690555050505050565b8160006002811115610e1057fe5b600080836bffffffffffffffffffffffff19166bffffffffffffffffffffffff1916815260200190815260200160002060070160019054906101000a900460ff166002811115610e5c57fe5b141515610e6857600080fd5b83600080856bffffffffffffffffffffffff19166bffffffffffffffffffffffff191681526020019081526020016000206001018190555042600080856bffffffffffffffffffffffff19166bffffffffffffffffffffffff191681526020019081526020016000206000018190555082600080856bffffffffffffffffffffffff19166bffffffffffffffffffffffff1916815260200190815260200160002060020160006101000a81548173ffffffffffffffffffffffffffffffffffffffff02191690836c010000000000000000000000009004021790555081600080856bffffffffffffffffffffffff19166bffffffffffffffffffffffff1916815260200190815260200160002060050160006101000a81548173ffffffffffffffffffffffffffffffffffffffff021916908373ffffffffffffffffffffffffffffffffffffffff16021790555033600080856bffffffffffffffffffffffff19166bffffffffffffffffffffffff1916815260200190815260200160002060040160006101000a81548173ffffffffffffffffffffffffffffffffffffffff021916908373ffffffffffffffffffffffffffffffffffffffff1602179055506001600080856bffffffffffffffffffffffff19166bffffffffffffffffffffffff1916815260200190815260200160002060070160016101000a81548160ff0219169083600281111561107857fe5b021790555034600080856bffffffffffffffffffffffff19166bffffffffffffffffffffffff19168152602001908152602001600020600601819055507f8f52c15a8dda5af727677001f0ceb13df57f42198fd5cdde86a06aee80333a4b600080856bffffffffffffffffffffffff19166bffffffffffffffffffffffff1916815260200190815260200160002060000154858585333460405180878152602001868152602001856bffffffffffffffffffffffff19166bffffffffffffffffffffffff191681526020018473ffffffffffffffffffffffffffffffffffffffff1673ffffffffffffffffffffffffffffffffffffffff1681526020018373ffffffffffffffffffffffffffffffffffffffff1673ffffffffffffffffffffffffffffffffffffffff168152602001828152602001965050505050505060405180910390a150505050565b60006020528060005260406000206000915090508060000154908060010154908060020160009054906101000a90046c0100000000000000000000000002908060030154908060040160009054906101000a900473ffffffffffffffffffffffffffffffffffffffff16908060050160009054906101000a900473ffffffffffffffffffffffffffffffffffffffff16908060060154908060070160009054906101000a900460ff16908060070160019054906101000a900460ff169050895600a165627a7a72305820ae3ad554aec7eae7b2c53f5ffba64e72fa835dccdf2e12c7e328c565e053e7550029",
  "source": "pragma solidity ^ 0.4.15;\n\ncontract AtomicSwap {\n\n    enum State {\n        Empty,\n        Initiator,\n        Participant\n    }\n\n    struct Swap {\n        uint initTimestamp;\n        uint refundTime;\n        bytes20 hashedSecret;\n        bytes32 secret;\n        address initiator;\n        address participant;\n        uint256 value;\n        bool emptied;\n        State state;\n    }\n\n    mapping(bytes20 => Swap) public swaps;\n\n    event Refunded(uint _refundTime);\n    event Redeemed(uint _redeemTime);\n    event Participated(\n        address _initiator,\n        address _participator,\n        bytes20 _hashedSecret,\n        uint256 _value\n    );\n    event Initiated(\n        uint _initTimestamp,\n        uint _refundTime,\n        bytes20 _hashedSecret,\n        address _participant,\n        address _initiator,\n        uint256 _funds\n    );\n\n    function AtomicSwap() {}\n\n    modifier isRefundable(bytes20 _hashedSecret) {\n        require(block.timestamp > swaps[_hashedSecret].initTimestamp + swaps[_hashedSecret].refundTime);\n        require(swaps[_hashedSecret].emptied == false);\n        _;\n    }\n\n    modifier isRedeemable(bytes20 _hashedSecret, bytes32 _secret) {\n        require(ripemd160(_secret) == _hashedSecret);\n        require(block.timestamp < swaps[_hashedSecret].initTimestamp + swaps[_hashedSecret].refundTime);\n        require(swaps[_hashedSecret].emptied == false);\n        _;\n    }\n\n    modifier isInitiator(bytes20 _hashedSecret) {\n        require(msg.sender == swaps[_hashedSecret].initiator);\n        _;\n    }\n\n    modifier isNotInitiated(bytes20 _hashedSecret) {\n        require(swaps[_hashedSecret].state == State.Empty);\n        _;\n    }\n\n    function initiate(uint _refundTime, bytes20 _hashedSecret, address _participant)\n    payable\n    isNotInitiated(_hashedSecret) {\n        swaps[_hashedSecret].refundTime = _refundTime;\n        swaps[_hashedSecret].initTimestamp = block.timestamp;\n        swaps[_hashedSecret].hashedSecret = _hashedSecret;\n        swaps[_hashedSecret].participant = _participant;\n        swaps[_hashedSecret].initiator = msg.sender;\n        swaps[_hashedSecret].state = State.Initiator;\n        swaps[_hashedSecret].value = msg.value;\n        Initiated(\n            swaps[_hashedSecret].initTimestamp,\n            _refundTime,\n            _hashedSecret,\n            _participant,\n            msg.sender,\n            msg.value\n        );\n    }\n\n    function participate(uint _refundTime, bytes20 _hashedSecret, address _initiator)\n    payable\n    isNotInitiated(_hashedSecret) {\n        swaps[_hashedSecret].refundTime = _refundTime;\n        swaps[_hashedSecret].initTimestamp = block.timestamp;\n        swaps[_hashedSecret].participant = msg.sender;\n        swaps[_hashedSecret].initiator = _initiator;\n        swaps[_hashedSecret].value = msg.value;\n        swaps[_hashedSecret].hashedSecret = _hashedSecret;\n        swaps[_hashedSecret].state = State.Participant;\n        Participated(_initiator, msg.sender, _hashedSecret, msg.value);\n    }\n\n    function redeem(bytes32 _secret, bytes20 _hashedSecret)\n    isRedeemable(_hashedSecret, _secret) {\n        if (swaps[_hashedSecret].state == State.Participant) {\n            swaps[_hashedSecret].initiator.transfer(swaps[_hashedSecret].value);\n        }\n        if (swaps[_hashedSecret].state == State.Initiator) {\n            swaps[_hashedSecret].participant.transfer(swaps[_hashedSecret].value);\n        }\n        swaps[_hashedSecret].emptied = true;\n        Redeemed(block.timestamp);\n        swaps[_hashedSecret].secret = _secret;\n    }\n\n    function refund(bytes20 _hashedSecret)\n    //if is refundable\n    isRefundable(_hashedSecret) {\n        if (swaps[_hashedSecret].state == State.Participant) {\n            swaps[_hashedSecret].participant.transfer(swaps[_hashedSecret].value);\n        }\n        if (swaps[_hashedSecret].state == State.Initiator) {\n            swaps[_hashedSecret].initiator.transfer(swaps[_hashedSecret].value);\n        }\n        swaps[_hashedSecret].emptied = true;\n        Refunded(block.timestamp);\n    }\n}\n",
  "sourcePath": "/Users/andrew_nguyen/files/cs/java/atomic_swap/contracts/AtomicSwap.sol",
  "compiler": {
    "name": "solc",
    "version": "0.4.19+commit.c4cbbb05.Emscripten.clang"
  },
  "schemaVersion": "1.0.1",
  "updatedAt": "2018-02-18T13:54:20.487Z"
}